:020000040800F2
:1000000000200020DD010008E5010008E9010008EA
:1000100000000000000000000000000000000000E0
:1000200000000000000000000000000005020008C1
:100030000000000000000000090200080D02000896
:100040001502000815020008150200081502000834
:100050001502000815020008150200081502000824
:100060001502000815020008150200081502000814
:10007000150200081502000815020008ED05000829
:100080001502000815020008000000001502000813
:1000900015020008150200081502000815020008E4
:1000A00015020008150200081502000815020008D4
:1000B0001502000800000000150200080000000002
:1000C0005FF808F130B583B000F050F9314B324A97
:1000D0001360324A1360324B324A03E011681960F0
:1000E0000433043230498B42F8D32B4B1A682F4B20
:1000F0009A4204D1294B1A682D4B9A4200D0FEE750
:10010000244B2C4A13602C4A13602C4B02E0002233
:100110001A6004332A4A9342F9D3264B1B68002BFA
:1001200003D1254B1B68002B00D0FEE700F022F91D
:10013000694601A800F00EF9224C234B1C1BA410A9
:10014000002504E0AA001F4BD35898470135AC4264
:10015000F8DC1E4C1E4B1C1BA410002504E0AA005A
:100160001A4BD35898470135AC42F8DC00990198F6
:1001700000F000FB0500174C174B1C1BA41004E0FB
:10018000013CA200134BD3589847002CF8DC280000
:1001900000F0DAF8BABADECA00000020240000201D
:1001A0000000002064170008280000207856341250
:1001B0003254769828000020D0000020280000202B
:1001C000D40000204002000840020008400200085D
:1001D00040020008400200084002000810B5FFF786
:1001E00071FFC04600BEFEE704207146084202D0FF
:1001F000EFF3098001E0EFF308807146044A1047ED
:1002000000BEFEE700BEFEE700BEFEE7704700004E
:080210000102000800BEFEE738
:100218006417000800000020280000206417000868
:10022800000000000000000028000020D40000208A
:080238000000000000000000BE
:10024000F0B5474680B404000D00344B98420AD004
:100250008023DB05984206D0314B984203D03149C8
:10026000314800F07FF82B88002B0DD0102B0BD0DD
:10027000202B09D0302B07D0602B05D0702B03D05A
:100280002A49294800F06EF86B88012B03D92849C8
:10029000254800F067F8AB89002B06D0022B04D06C
:1002A0008221C900204800F05DF8228C214B1340C8
:1002B0002384268CA3889BB29846A78B1E4A17409E
:1002C0002A88120292B217431C4B1E40AA891203BD
:1002D00092B2330013436E883603B6B21E430F4BFF
:1002E0009C4212D12B8A80225200934205D0002BCF
:1002F00003D013490C4800F035F8124B42461A401F
:100300002B8A9B019BB21A4390464346A380A78346
:10031000AB682364268404BC9046F0BD002C0140E9
:10032000000400400D040000B41600080E04000094
:100330000F040000FFEFFFFFFF8CFFFFFFDFFFFF59
:100340002D040000FFBFFFFFFEE7C04610B50120EF
:10035000FFF7FAFF01230360014B0B607047C046B3
:100360000400002010B5FFF7F1FFC04610B500F003
:100370005DF810BD10B500F08BF810BD82B0002301
:1003800001930093264A1368802149020B431360AE
:10039000234B1A6880239B0213400093019B013377
:1003A0000193009B002B04D1019AA023DB019A4208
:1003B000EED11B4B1B689B0302D50123009301E088
:1003C00000230093009B012B28D11122154B1A60AA
:1003D000134B5A685A605A685A605968124A0A4060
:1003E0005A605A68882149030A435A601A68802172
:1003F00049040A431A600A4B1B689B01FBD5084B52
:100400005A6803218A435A60596802220A435A6093
:10041000034B5B680C221340082BF9D102B07047E4
:100420000010024000200240FF7FC0FF10B5124BB9
:100430001A6801210A431A605868104A02405A603B
:1004400018680F4A02401A6018680E4A02401A6083
:1004500058680D4A02405A60DA6A0F208243DA6215
:10046000186B0A4A02401A635A6B8A435A63002285
:100470009A60FFF783FF10BD001002400CB8FF0820
:10048000FFFFF6FEFFFFFBFFFFFFC0FFACFEFFFF1D
:1004900010B51F4B5B680C221340042B07D0082BB0
:1004A00009D0002B23D11B4A1B4B1A6022E0194AAA
:1004B000194B1A601EE0164B5C685A68A40C0F209A
:1004C00004400234C0235B021A4204D1134844435F
:1004D000114B1C600EE00E4BDB6A0F2119400131FD
:1004E0000C4800F04BF944430B4B1C6002E0094AF6
:1004F000094B1A60064B5B681B090F221340084A20
:10050000D35CDBB2044A1168D940116010BDC0460B
:100510000010024000127A001C00002000093D007B
:100520000C0000201B4A9369802189000B439361D2
:100530009022D205116808230B431360164BD9682B
:1005400010220A43DA60DA68802189010A43DA60FE
:100550001A69C02109060A431A619A6880210906AE
:100560000A439A600C4B9B68002BFBDB0A4B996A91
:1005700002220A439A62996801220A439A60064B52
:100580001B68DB07FBD4044A916804230B43936088
:100590007047C046001002400024014010B586B0EC
:1005A0000F49CB6902221343CB610E4C2F232385C5
:1005B0000D4BE36201A960230B805F3B4B80886099
:1005C00000238B808A81CB810B824B822000FFF736
:1005D00037FE2288012313439BB2238006B010BD4F
:1005E000001002400004004040420F0030B583B0CC
:1005F0002A4B1B682A499C002A4802686558521BEE
:1006000002602948006C605028490968884201DD71
:100610002649086026490968884202DA00242449EC
:100620000C6010181F4A106001331C4A13601D2B08
:1006300002DD0022194B1A601E2100F029F91D4B22
:10064000186000F0D7FF04000D00184B186800F088
:10065000D1FF02000B002000290000F005FA040081
:100660000D00154B1C605D60144B186800F0C2FF54
:1006700022002B0000F00EFD00F086FF104B1860EA
:10068000019001980F4B181AFFF788FF8022D205BE
:10069000138A01218B43138203B030BD4000002038
:1006A00058000020480000200024014030000020B5
:1006B0004C000020440000203800002020000020D2
:1006C00050000020684200000D4AD16901230B430D
:1006D000D3618023DB05EB2252001A85CD3AFF3A25
:1006E000DA6299890122114389B2998119880A43F2
:1006F00092B21A8080221202024B1A607047C046E2
:100700000010024000E100E00C4A53698021090317
:100710000B4353610A4B1A680A431A609988094AC5
:100720000A409A809968084A11409960D9680A403D
:10073000DA605A6AF0218A435A6270470010024018
:1007400000080048FFFDFFFFFFFFF3FF10B5002387
:1007500004E099000020064A885001331D2BF8DD83
:10076000FFF7D2FFFFF7DEFEFFF7AEFF10BDC0467A
:100770005800002010B5FFF7E9FFFEE7002243080C
:100780008B4274D303098B425FD3030A8B4244D359
:10079000030B8B4228D3030C8B420DD3FF2209029B
:1007A00012BA030C8B4202D31212090265D0030B5A
:1007B0008B4219D300E0090AC30B8B4201D3CB0350
:1007C000C01A5241830B8B4201D38B03C01A524192
:1007D000430B8B4201D34B03C01A5241030B8B4294
:1007E00001D30B03C01A5241C30A8B4201D3CB027F
:1007F000C01A5241830A8B4201D38B02C01A524164
:10080000430A8B4201D34B02C01A5241030A8B4266
:1008100001D30B02C01A5241CDD2C3098B4201D37E
:10082000CB01C01A524183098B4201D38B01C01AFC
:10083000524143098B4201D34B01C01A5241030973
:100840008B4201D30B01C01A5241C3088B4201D322
:10085000CB00C01A524183088B4201D38B00C01ACF
:10086000524143088B4201D34B00C01A5241411AF6
:1008700000D20146524110467047FFE701B5002003
:1008800000F0F0F802BDC0460029F7D076E77047C7
:1008900003460B437FD4002243088B4274D30309E1
:1008A0008B425FD3030A8B4244D3030B8B4228D382
:1008B000030C8B420DD3FF22090212BA030C8B42A8
:1008C00002D31212090265D0030B8B4219D300E048
:1008D000090AC30B8B4201D3CB03C01A5241830BCD
:1008E0008B4201D38B03C01A5241430B8B4201D37D
:1008F0004B03C01A5241030B8B4201D30B03C01AA6
:100900005241C30A8B4201D3CB02C01A5241830A1F
:100910008B4201D38B02C01A5241430A8B4201D34E
:100920004B02C01A5241030A8B4201D30B02C01A78
:100930005241CDD2C3098B4201D3CB01C01A5241DF
:1009400083098B4201D38B01C01A524143098B4268
:1009500001D34B01C01A524103098B4201D30B0151
:10096000C01A5241C3088B4201D3CB00C01A524176
:1009700083088B4201D38B00C01A524143088B423B
:1009800001D34B00C01A5241411A00D201465241D4
:10099000104670475DE0CA0F00D04942031000D3F3
:1009A0004042534000229C4603098B422DD3030A48
:1009B0008B4212D3FC22890112BA030A8B420CD358
:1009C000890192118B4208D3890192118B4204D381
:1009D00089013AD0921100E08909C3098B4201D301
:1009E000CB01C01A524183098B4201D38B01C01A3B
:1009F000524143098B4201D34B01C01A52410309B2
:100A00008B4201D30B01C01A5241C3088B4201D360
:100A1000CB00C01A524183088B4201D38B00C01A0D
:100A20005241D9D243088B4201D34B00C01A5241E4
:100A3000411A00D20146634652415B10104601D371
:100A40004042002B00D54942704763465B1000D3FB
:100A5000404201B5002000F005F802BD0029F8D0A1
:100A600016E770477047C046F0B556464D464446B7
:100A70005F46F0B41D000E034C00CB0F87B007009B
:100A800092468146360B640D98466AD06D4B9C4267
:100A900035D08022430F12041343F6001E43C300D7
:100AA0009946694B00279C460023644402932B031C
:100AB00068001B0BED0F51469B46400D009500D181
:100AC00078E0604B98426CD05B46DA004B0F802197
:100AD00009040B4313439B465346D9005A4B9C468B
:100AE000002360444246201A6A40924601901F4308
:100AF0000F2F00D9B0E05548BF00C0598746374393
:100B000000D088E00023994602330827002602938C
:100B1000CDE74346B34649460093029B009A92466E
:100B2000022B00D0BFE10021534601220026894656
:100B30001A40444B002136030C0D2405360B264386
:100B4000434C1B0526401E437600D2077608164309
:100B50004846310007B03CBC90469946A246AB4699
:100B6000F0BD330003434FD0002E00D1BCE1300074
:100B700000F082FD03000B3B1C2B00DDADE11D22CC
:100B80000100D31A08393A008F408E40DA40B94646
:100B90001643304B00279C46002360444442029396
:100BA00085E753465A4613432CD1002300219B4628
:100BB000023397E70B4320D05B46002B00D19EE128
:100BC000584600F059FD03000B3B1C2B00DD8FE164
:100BD00002005946083A91408B461D21CB1A5146D6
:100BE000D9400B0059460B4351469B469140194B47
:100BF0009C4660444042002374E7002300219B464A
:100C000001336FE703236DE700239946013304277F
:100C1000002602934BE703230C27029347E70122A8
:100C2000D51A382D00DCB0E153461A4000210023CC
:100C3000002689467EE70023802699460022360357
:100C4000004B77E7FF07000001FCFFFFE4160008F8
:100C5000FFFF0F80F30300005E4500D972E100D171
:100C60006DE1019B4D46013B01930023340002934B
:100C70005B461E020B0E1E430B020393330C994678
:100C800033041B0C494620000093FFF777FD009BBF
:100C9000370043430600494620009846FFF7F4FD1D
:100CA0002C0C09040C43A04509D9E419731EA74272
:100CB00000D95CE1A04500D859E1023EE419434661
:100CC000E41A49462000FFF759FD0300009A8046C8
:100CD0005343494620009B46FFF7D6FD2A040904EA
:100CE000120C0A4393450DD94346D219013B974252
:100CF00000D93AE1934500D837E102235B429C4694
:100D0000D219E0445B46D21A4346360433439B462D
:100D10000399180C0B0C1D00059309045B46090C84
:100D20000C001B041B0C4443049159436B43684360
:100D30001B190D0CEB189C4203D980246402A446B5
:100D400060441C0C09041B04090C20185D18824225
:100D500000D2DEE000D1D7E0161A029B9C465D1B54
:100D6000AC459B415B42F61AB74200D106E14946C9
:100D70003000FFF703FD009B040043434946300069
:100D80009846FFF781FD2E0C09040E43B04509D9A2
:100D9000F619631EB74200D9F3E0B04500D8F0E081
:100DA000023CF6194346F31A494618000293FFF72E
:100DB000E5FC009B06004343494602989846FFF72E
:100DC00063FD2D0409042D0C0D43A84509D9ED1927
:100DD000731EAF4200D9D6E0A84500D8D3E0023E4A
:100DE000ED192404210043463143049E059A300046
:100DF000ED1A0B040C0C1B0C58436643534354432D
:100E00009A19030C9B189E4203D9802252029446E1
:100E100064441A0C00041B04000C14191B18A5428E
:100E200050D34DD001231943964A019B9446634405
:100E3000002B00DCF3E64A0709D00F220A40042AFF
:100E400005D00A1D8A42894149428B4411005A4605
:100E5000D20108D55A468C4B1A4093468022D200C4
:100E60009446019B6344894A934200DD5BE65A46FF
:100E7000C908500708435602514601225B058146C6
:100E8000360B5B0D0A4055E680231B031E4211D032
:100E90005A461A420ED15E461E433603360B2A00CE
:100EA00089467B4B46E6032B00D1E1E0012BBBD109
:100EB0001A40BBE61E433603360B4246744B39E6F6
:100EC000002BB1D07D194A1EAF4252D91100A54264
:100ED000A8D1039A9A42A5D1A6E703003E00283B79
:100EE0009E400023994654E600F0C6FB203041E6C0
:100EF00003005246283B9A400021934677E650462D
:100F000000F0BAFB20305EE6029B0026AB4200D325
:100F100023E7039E0299B44661448846B045B64132
:100F20005B467642F619B218013B0291974213D202
:100F300090424FD800D18EE0161A9B460DE78945A6
:100F400000D28EE674084B46F60735005B081D4359
:100F50004B46DB0702938BE69742EDD10399029C47
:100F6000A142E5D93E1A9B46F7E69846CAE61E001E
:100F7000A5E6AC423ED874D0110053E701214942A6
:100F800052E71C000EE71E002BE71F2D3CDC202340
:100F90000A0058465B1B9840EA4099400243481EAD
:100FA00081415E461143EE404B0709D00F230B40B1
:100FB000042B05D00B00191D99429B415B42F6188A
:100FC00033023CD55346012200211A40002601235A
:100FD0008946AFE502235B429C46039CE344A4465A
:100FE000029B63449846A045B6417642F6190293A7
:100FF000B218B1E603988A1E41008142B64176429A
:10100000F619AD19039161E71F225242D31A5A46CD
:10101000DA401300202D29D040225846551BA84005
:101020000143481E814107200B4318400026002839
:1010300009D00F2200261A401900042ABBD10B0048
:1010400070077602360BDB080343994601225346AC
:101050001A4000236EE502998D42BBD89B460026BC
:101060007BE603989842C5D3110032E70020D7E70A
:1010700080265B4636031E433603360B009A8946AC
:10108000034B57E5FF030000FFFFFFFEFE070000D4
:10109000FF070000F0B55F4656464D464446F0B4A3
:1010A0000D0399464E002B0B87B0070092468046F1
:1010B0009B46760DCC0F002E69D06D4B9E4235D0ED
:1010C0005B468022DD001204430F13432B439B46F3
:1010D000C3009846674B00279C4600236644019353
:1010E0004A4615035000D20F53462D0B400D914632
:1010F00000D176E05E4A90426CD080225B0F1204F1
:1011000013435C4AED0094461D4353460022DB0026
:10111000604449463618701C6140029017430F2FF7
:1011200000D9AFE05448BF00C759BF465B461F43D4
:1011300000D088E000239B4698460233082701939D
:10114000CEE74946022A6AD0032A00D109E2012AE1
:1011500000D0BBE111400022002300259046CCB214
:1011600000212D030A0D12052D0B1543434A1B05C3
:1011700015401D436D00E4076D08254340462900D6
:1011800007B03CBC90469946A246AB46F0BD03432F
:1011900052D05B46002B00D18AE1584600F06CFA31
:1011A00003000B3B1C2B00DD7BE11D22D31A3A0010
:1011B00001005D46DA4008398D4013008F402B4313
:1011C0009B46B8462E4B00279C460023604446426F
:1011D000019385E752462A432CD1002500230222A1
:1011E00097E752462A4321D0002D00D154E1280030
:1011F00000F042FA03000B3B1C2B00DD46E11D21F1
:10120000CB1A51460200D9405346083A95409340C4
:101210000D431B4A944660444042002279E7012472
:1012200000220C40124B0025904699E70025002330
:1012300001226EE703226CE700239B4698460133A8
:10124000042701934CE703230C27019348E700236D
:101250008025984600242D03054B81E75D464346D3
:10126000019A6FE75D4643462100019A6AE7C0464E
:10127000FF07000001FCFFFF24170008FFFF0F809D
:10128000F30300004246120C91461A0C9446424663
:1012900017044A461B041B0C5A43604690464A46B4
:1012A00042431000039262461C003F0C7A437C4389
:1012B00042440192220C9246019A5244904506D92A
:1012C0008246802040028046C24450460390100C63
:1012D000049048462404240C1204121905922A0C86
:1012E0002D042D0C68432C00824648467C43504315
:1012F0008146200C8046574357444744BA4503D99A
:10130000802040028046C144380C3F04B84648441F
:101310002404240C01900498A044404404905846AE
:10132000000C814658460404200C824607004846BB
:101330005F434C46434360466043644683465046A1
:101340004443380C8446E4186444A34203D9802300
:101350005B029C46E34448463F04230C3F0C2404B4
:10136000E419574668436F4384464D4650465543FB
:101370004243380C814662444A445B44944503D955
:10138000802040028446654403983F0483460498C5
:101390003F0C8446E344C3458041404282461004EA
:1013A00084460198674484466744A344BC46A345E9
:1013B000A4419946D44464428742BF41D445804108
:1013C000E144A04699459B417F424042C8440743BF
:1013D000120CBA18A045A4415F423B00644223436B
:1013E000D71843467D19DB0D6D021D435B465A023B
:1013F000059B1A43531E9A415B46DB0D1A43434635
:101400005B021343EA0107D501225C081340234322
:10141000EA07029E13436D08574AB218002A4BDDB3
:10142000580709D00F201840042805D0181D9842ED
:101430009B415B42ED180300E80104D54F4A15407B
:101440008022D200B2184E48824200DDE7E6012435
:10145000DB08680718436D02530580462D0B5B0DB2
:101460000C407DE6802259461203114208D01542F5
:1014700006D115432D0398462D0B4C46414B6FE684
:101480005D4615432D032D0B3E4B69E60300554683
:10149000283B9D400023BCE6504600F0EDF820308C
:1014A000A8E60300283B9F400023BB46984689E6F8
:1014B00000F0E2F8203073E60124A61A382E07DD8A
:1014C00000220C4000230025904649E6029EA3E737
:1014D0001F2E20DC20222C001800921BF04094408C
:1014E00093400443581E83411C43F540630709D0D1
:1014F0000F232340042B05D023001C1D9C42924146
:101500005242AD182B021FD5012400220C400123AA
:101510000025904624E61F202C004042821AD44029
:10152000202E1CD04022961BB5402B43581E8341D1
:101530000720234318400025002809D00F2200254A
:101540001A401C00042AD8D1230068076D022D0B15
:101550000124DB08034398460C40002300E60025E5
:10156000E3E780220124120315432D0398462D0B37
:101570000C40044BF4E5C046FF030000FFFFFFFEF4
:10158000FE070000FF0700000B0330B5134D1A0BD8
:101590004B005B0DC90F0024AB4211DD104CA34280
:1015A00010DC8024640322430E4CE41A1F2C0CDD53
:1015B0000D48C31ADA4013005C42002900D11C0018
:1015C000200030BD094BCC18FAE7E040084CA44697
:1015D00063449A4013000343EEE7C046FE03000055
:1015E0001D0400003304000013040000FFFFFF7F10
:1015F000EDFBFFFF70B5002830D0C317C4185C4066
:10160000C50F200000F038F8174B184A1B1AD21AE1
:101610001F2A18DD164AD21A9440002224035B05C3
:10162000240B5B0D0021100024030A0D1205240B6E
:101630001443104A1B0514401C436400ED07640862
:101640002C43210070BD210091400A000B21081A93
:10165000C4405B052403240B5B0DE3E70025002356
:1016600000240022DEE7C0461E0400003304000010
:1016700013040000FFFF0F801C2101231B0498426C
:1016800001D3000C10391B0A984201D3000A083913
:101690001B09984201D30009043902A2105C4018CA
:1016A0007047C0460403020201010101000000006E
:1016B000000000002E2E2F73797374656D2F7372E6
:1016C000632F73746D333266302D7374647065727A
:1016D0006970682F73746D3332663078785F74691F
:1016E0006D2E6300580C0008260B00082C0C000817
:1016F0001C0B00082C0C0008360C00082C0C0008F1
:101700001C0B0008260B0008260B0008360C0008EE
:101710001C0B0008120B0008120B0008120B00082B
:10172000880E0008841200084411000844110008C3
:10173000421100085C1200085C1200084E120008FA
:10174000421100085C1200084E1200085C120008EA
:1017500042110008641200086412000864120008B4
:041760006414000805
:10176400785634122C000020000000000000000015
:10177400000000000102030406070809006CDC02F3
:08178400A086010032547698A2
:04000005080000C52A
:00000001FF
